:100000000C942A000C9447000C9447000C94470071
:100010000C9447000C9447000C94CB010C944700BF
:100020000C9447000C9447000C9447000C94470034
:100030000C9447000C9447000C9447000C94470024
:100040000C9447000C9447000C9447000C94470014
:100050000C94470011241FBECFE5D8E0DEBFCDBF12
:1000600010E0A0E6B0E0E0E8FDE002C005900D92EF
:10007000A237B107D9F721E0A2E7B0E001C01D9295
:10008000AA36B207E1F70E94C1020C94BE060C9496
:100090000000D69AD59AD49AD39A089589B383FB4F
:1000A000882780F9CC998260CD998460CE99886048
:1000B000089580FF02C0DB9A01C0DB9881FF02C077
:1000C000DC9A01C0DC9882FF02C0DD9A01C0DD9895
:1000D00083FF02C0DE9A0895DE980895CF93D698E4
:1000E000D598D498D398D99ADA9A0E944E00C82FFE
:1000F000C295C07FDA98DA9A0E944E00DA988C2B6B
:10010000CF910895D8980C946E00CF93C82F0E9479
:100110004900D998DA9A8C2F82958F700E945900E5
:10012000DA98DA9A8C2F0E945900DA980E9482009D
:1001300087FDFCCFCF910895D8980C948500D89A6C
:100140000C948500982F9058983008F487700C9480
:100150009F00CF93DF93EC0102C00E94A20089911F
:100160008111FBCFDF91CF910895CF93DF93EC0105
:1001700002C00E94A200FE01219684918111F9CF54
:10018000DF91CF910895CF93DF93EC0121960E94E8
:100190009905982F91509E3F20F40E94A200CE0115
:1001A000F4CFDF91CF910895CF93DF93CDB7DEB732
:1001B00061970FB6F894DEBF0FBECDBF4AE050E0A6
:1001C000BE016F5F7F4F0E9446030E94A9006196A7
:1001D0000FB6F894DEBF0FBECDBFDF91CF9108956B
:1001E000CF93DF93CDB7DEB761970FB6F894DEBF3C
:1001F0000FBECDBF20E130E0AE014F5F5F4F0E94E8
:1002000067030E94A90061960FB6F894DEBF0FBE87
:10021000CDBFDF91CF9108950F931F93CF93DF93BD
:10022000EB018770880F880F880F805C0E949C000C
:100230008E01085F1F4F89910E949F00C017D10750
:10024000D1F7DF91CF911F910F9108950F931F93D5
:10025000CF93DF93EB018770880F880F880F805C46
:100260000E949C008E01085F1F4FFE012196849121
:100270000E949F00C017D107C1F7DF91CF911F9156
:100280000F910895EF92FF920F931F93CF93DF93F7
:10029000EB018770880F880F880F805C0E949C009C
:1002A0008E01085F1F4F7E018FEFE81AF80ACE011A
:1002B0000E9499050E949F00E701E016F10699F758
:1002C000DF91CF911F910F91FF90EF9008958130B2
:1002D00009F480E46058860F0C949C0081E00C9433
:1002E0009C000E944900D09AD29AD19AD89ADA9A60
:1002F000D99A8FEF91EA0197F1F700C00000DA98E0
:10030000D898D998DA9A83E00E945900DA9887E45D
:100310009CE20197F1F700C0DA9A83E00E9459004D
:10032000DA9884E191E00197F1F70000DA9A83E02E
:100330000E945900DA9884E191E00197F1F70000FA
:10034000DA9A82E00E945900DA9884E191E00197FC
:10035000F1F7000088E20E949C0088E00E949C0067
:100360008CE00E949C0086E00E949C000C946E0130
:100370008E98969A8EB582608EBD8EB58A7F8EBD20
:100380008EB58F7B8EBD1092160189B7806289BFB2
:100390001092170108951F920F920FB60F92112419
:1003A0002F933F934F935F936F937F938F939F937D
:1003B000AF93BF9386B597B52091720030917300CB
:1003C00046B557B5509373004093720040911701A2
:1003D0004111C8C0821B930BA0E0B0E020917400D3
:1003E00021110CC0815E9E42A109B109873B9B404F
:1003F000A105B10508F0B6C081E057C0213009F071
:100400005AC0AC01BD014D565740610971094B3BC3
:10041000524061057105A0F4409168015091690155
:10042000609175002FE030E0261B310981E090E0FB
:1004300002C0880F991F2A95E2F7842B952B1EC0C6
:1004400087569340A109B109833F9140A105B105A9
:10045000E8F44091680150916901609175002FE0C6
:1004600030E0261B310981E090E002C0880F991F1F
:100470002A95E2F7809590958423952390936901BE
:10048000809368016F5F6093750002C010927400E2
:1004900080917500803109F065C08091680190916C
:1004A00069018F3D904221F482E08093740058C02E
:1004B0001092740055C0223009F054C0AC01BD0147
:1004C0004D565740610971094B3B5240610571051A
:1004D000A0F44091680150916901609175002FE08E
:1004E00030E0261B310981E090E002C0880F991F9F
:1004F0002A95E2F7842B952B1EC087569340A109BD
:10050000B109833F9140A105B105E8F4409168012C
:1005100050916901609175002FE030E0261B310990
:1005200081E090E002C0880F991F2A95E2F780953C
:1005300090958423952390936901809368016F5F60
:100540006093750002C01092740080917500803134
:1005500049F480917400811105C081E080931701F6
:1005600010927500BF91AF919F918F917F916F9184
:100570005F914F913F912F910F900FBE0F901F9061
:100580001895CF93DF93CDB7DEB72A970FB6F894BF
:10059000DEBF0FBECDBFD79ADF9AA09AA89A81B3CB
:1005A000886381BB82B38F6382BB83E090E041E0CC
:1005B00050E062B39A01082E01C0220F0A94EAF7B4
:1005C000322F3095362332BB6FE778E3E1E061509C
:1005D0007040E040E1F700C0000032B3322B32BB84
:1005E0002FE738E361E0215030406040E1F700C080
:1005F0000000019686309105E1F60E9471010E948B
:10060000B801789460E080E00E9467018CE6E82EF3
:1006100080E0F82E8E010F5F1F4F80911701882315
:10062000E1F393980E946E0160E080E00E94670110
:1006300080E690E00E94A90060E081E00E946701EE
:1006400089E690E00E94A90080916801909169017B
:100650009F938F93FF92EF921F930F930E949B03A0
:10066000C8010E94A9007FEF81EE94E071508040A4
:100670009040E1F700C00000939A109217010F908C
:100680000F900F900F900F900F90C7CFFB019F011D
:10069000E8944230C4F04532B4F44A3029F497FB70
:1006A0001EF4909581959F4F642F77270E945106E5
:1006B000805D8A330CF0895D8193CB010097A1F7AF
:1006C00016F45DE251931082C9010C94B705FA014A
:1006D000CF93FF93EF93223044F1253234F5C22FAC
:1006E000E894CA3049F497FB3EF490958095709554
:1006F00061957F4F8F4F9F4F2C2F332744275527CE
:10070000FF93EF930E946506EF91FF91605D6A335E
:100710000CF0695D6193B901CA016050704080407E
:10072000904051F716F4CDE2C19310828F919F91C2
:10073000CF910C94B705AEE0B0E0E1EAF3E00C94A1
:1007400095060D891E8986E08C831A8309838FEFB5
:100750009FE79E838D83CE014996AC016F89788D8A
:10076000CE0101960E94BD03EF81F885E00FF11FD5
:1007700010822E96E4E00C94B106ACE0B0E0E3EC1D
:10078000F3E00C9487067C016B018A01FC0117825F
:100790001682838181FFC6C188248394912C8C0E9C
:1007A0009D1EF7019381F60193FD859193FF819141
:1007B0006F01882309F4B2C1853239F493FD859124
:1007C00093FF81916F01853229F4B70190E00E9477
:1007D000C705E7CF512C312C20E02032A8F48B3212
:1007E00061F028F4803251F0833271F40BC08D3205
:1007F00039F0803349F4216028C02260246025C08C
:10080000286023C0206121C027FD27C0382F305326
:100810003A3078F426FF06C0FAE05F9E300D1124CE
:10082000532E13C08AE0389E300D1124332E2062DF
:100830000CC08E3221F426FD71C1206406C08C36B6
:1008400011F4206802C0883641F4F60193FD8591C9
:1008500093FF81916F018111C0CF982F95549330F0
:1008600018F09052933028F40C5F1F4FFFE3F98388
:100870000DC0833631F0833771F0833509F05EC0E7
:1008800023C0F801808189830E5F1F4F4424439465
:10089000512C540115C03801F2E06F0E711CF801A3
:1008A000A080B18026FF03C0652D70E002C06FEF0D
:1008B0007FEFC5012C870E94AC052C0183012C859C
:1008C0006FE7262E222218C03801F2E06F0E711C4D
:1008D000F801A080B18026FF03C0652D70E002C042
:1008E0006FEF7FEFC5012C870E94A1052C012C859D
:1008F00050E8252E222A830123FC1CC006C0B70124
:1009000080E290E00E94C7053A94832D90E048165B
:100910005906A8F30FC0F50127FC859127FE8191A8
:100920005F01B70190E00E94C70531103A94F1E0F1
:100930004F1A51084114510471F7EDC0843611F07B
:10094000893641F5F80127FF07C0608171818281F6
:1009500093810C5F1F4F08C060817181882777FDEC
:100960008095982F0E5F1F4F4FE6B42EB22297FF4F
:1009700009C090958095709561957F4F8F4F9F4FDF
:10098000F0E8BF2A2AE030E0A4010E94F305A82E77
:10099000A81843C0853731F43FEEB32EB2222AE0C7
:1009A00030E024C099EFB92EB2228F36B9F020F48E
:1009B000883509F0B3C00DC0803721F0883709F0C1
:1009C000ADC002C020E1B22AB4FE0BC084E0B82A58
:1009D00008C024FF09C0E6E0BE2A06C028E030E0D7
:1009E00005C020E130E002C020E132E0F801B7FEAE
:1009F00007C060817181828193810C5F1F4F06C0A7
:100A00006081718180E090E00E5F1F4FA4010E9421
:100A1000F305A82EA818FFE7BF22B6FE0BC02B2DAA
:100A20002E7FA51450F4B4FE0AC0B2FC08C02B2DD2
:100A30002E7E05C07A2C2B2D03C07A2C01C0752C7C
:100A400024FF0DC0FE01EA0DF11D8081803311F4F9
:100A5000297E09C022FF06C07394739404C0822FBC
:100A6000867809F0739423FD14C020FF0FC05A2C20
:100A7000731460F4530C5718732C08C0B70180E24C
:100A800090E02C870E94C70573942C857314B0F3F3
:100A900004C0731410F4371801C0312C24FF12C0A5
:100AA000B70180E390E02C870E94C7052C8522FFC8
:100AB0001EC021FF03C088E590E002C088E790E0F7
:100AC000B7010CC0822F867891F021FD02C080E230
:100AD00001C08BE227FD8DE2B70190E00E94C705BF
:100AE00006C0B70180E390E00E94C7055A94A514A0
:100AF000C0F3AA94F401EA0DF11DB701808190E0E2
:100B00000E94C705A110F5CF06C0B70180E290E0B2
:100B10000E94C7053A943110F8CF43CEF7012681E1
:100B2000378102C02FEF3FEFC9012C96E2E10C9410
:100B3000A306E199FECF9FBB8EBBE09A99278DB3A8
:100B40000895FC010590615070400110D8F7809520
:100B500090958E0F9F1F0895FC0161507040019089
:100B60000110D8F7809590958E0F9F1F0895DC0196
:100B7000FC01672F71917723E1F7329704C07C91D4
:100B80006D9370836291AE17BF07C8F308950F93FA
:100B90001F93CF93DF938C01EB018B8181FD03C009
:100BA0000FEF1FEF1AC082FF0DC02E813F818C8195
:100BB0009D812817390764F4E881F9810193F9834D
:100BC000E88306C0E885F985802F0995892B41F7D0
:100BD0008E819F8101969F838E83C801DF91CF9183
:100BE0001F910F910895FA01AA27283051F1203161
:100BF00081F1E8946F936E7F6E5F7F4F8F4F9F4FB1
:100C0000AF4FB1E03ED0B4E03CD0670F781F891FF2
:100C10009A1FA11D680F791F8A1F911DA11D6A0FC0
:100C2000711D811D911DA11D20D009F468943F9173
:100C30002AE0269F11243019305D3193DEF6CF0172
:100C40000895462F4770405D4193B3E00FD0C9F738
:100C5000F6CF462F4F70405D4A3318F0495D31FDA5
:100C60004052419302D0A9F7EACFB4E0A6959795F8
:100C7000879577956795BA95C9F7009761057105CE
:100C800008959B01AC010A2E069457954795379518
:100C90002795BA95C9F7620F731F841F951FA01D72
:100CA0000895AA1BBB1B51E107C0AA1FBB1FA617B3
:100CB000B70710F0A61BB70B881F991F5A95A9F705
:100CC00080959095BC01CD010895A1E21A2EAA1B32
:100CD000BB1BFD010DC0AA1FBB1FEE1FFF1FA217EC
:100CE000B307E407F50720F0A21BB30BE40BF50BE9
:100CF000661F771F881F991F1A9469F76095709572
:100D0000809590959B01AC01BD01CF0108952F9274
:100D10003F924F925F926F927F928F929F92AF928B
:100D2000BF92CF92DF92EF92FF920F931F93CF93D8
:100D3000DF93CDB7DEB7CA1BDB0B0FB6F894DEBF6F
:100D40000FBECDBF09942A88398848885F846E8495
:100D50007D848C849B84AA84B984C884DF80EE80DF
:100D6000FD800C811B81AA81B981CE0FD11D0FB6E8
:100D7000F894DEBF0FBECDBFED010895F894FFCF0C
:100D800052656320636D643A003078002530347812
:020D9000000061
:00000001FF
